{
  "_format": "hh-sol-artifact-1",
  "contractName": "QuizLens",
  "sourceName": "contracts/QuizLens.sol",
  "abi": [
    {
      "inputs": [
        {
          "internalType": "bytes32",
          "name": "paperHash",
          "type": "bytes32"
        }
      ],
      "name": "AlreadyNotarized",
      "type": "error"
    },
    {
      "inputs": [],
      "name": "ZeroHash",
      "type": "error"
    },
    {
      "anonymous": false,
      "inputs": [
        {
          "indexed": true,
          "internalType": "bytes32",
          "name": "paperHash",
          "type": "bytes32"
        },
        {
          "indexed": true,
          "internalType": "bytes32",
          "name": "reportHash",
          "type": "bytes32"
        },
        {
          "indexed": true,
          "internalType": "address",
          "name": "setter",
          "type": "address"
        },
        {
          "indexed": false,
          "internalType": "string",
          "name": "title",
          "type": "string"
        },
        {
          "indexed": false,
          "internalType": "uint256",
          "name": "timestamp",
          "type": "uint256"
        }
      ],
      "name": "PaperNotarized",
      "type": "event"
    },
    {
      "inputs": [
        {
          "internalType": "address",
          "name": "setter",
          "type": "address"
        }
      ],
      "name": "getSetterPapers",
      "outputs": [
        {
          "internalType": "bytes32[]",
          "name": "",
          "type": "bytes32[]"
        }
      ],
      "stateMutability": "view",
      "type": "function"
    },
    {
      "inputs": [
        {
          "internalType": "bytes32",
          "name": "paperHash",
          "type": "bytes32"
        },
        {
          "internalType": "bytes32",
          "name": "reportHash",
          "type": "bytes32"
        },
        {
          "internalType": "string",
          "name": "title",
          "type": "string"
        }
      ],
      "name": "notarize",
      "outputs": [],
      "stateMutability": "nonpayable",
      "type": "function"
    },
    {
      "inputs": [
        {
          "internalType": "bytes32",
          "name": "paperHash",
          "type": "bytes32"
        }
      ],
      "name": "verify",
      "outputs": [
        {
          "internalType": "bool",
          "name": "valid",
          "type": "bool"
        },
        {
          "internalType": "address",
          "name": "setter",
          "type": "address"
        },
        {
          "internalType": "bytes32",
          "name": "reportHash",
          "type": "bytes32"
        },
        {
          "internalType": "uint256",
          "name": "timestamp",
          "type": "uint256"
        },
        {
          "internalType": "string",
          "name": "title",
          "type": "string"
        }
      ],
      "stateMutability": "view",
      "type": "function"
    }
  ],
  "bytecode": "0x608060405234801561001057600080fd5b506106ed806100206000396000f3fe608060405234801561001057600080fd5b50600436106100415760003560e01c806375e36616146100465780639755940b14610073578063ca3eb6fa14610088575b600080fd5b61005961005436600461039d565b6100a8565b60405161006a9594939291906103b6565b60405180910390f35b61008661008136600461042b565b610189565b005b61009b6100963660046104ab565b610331565b60405161006a91906104db565b60008181526020819052604081206005810154815460028301546003840154600485018054879687968796606096929560ff909216946001600160a01b039091169381906100f59061051f565b80601f01602080910402602001604051908101604052809291908181526020018280546101219061051f565b801561016e5780601f106101435761010080835404028352916020019161016e565b820191906000526020600020905b81548152906001019060200180831161015157829003601f168201915b50505050509050955095509550955095505091939590929450565b831580610194575082155b156101b25760405163f1ae58d560e01b815260040160405180910390fd5b60008481526020819052604090206005015460ff16156101ec576040516306febc7360e31b81526004810185905260240160405180910390fd5b6040518060c00160405280336001600160a01b0316815260200185815260200184815260200142815260200183838080601f0160208091040260200160405190810160405280939291908181526020018383808284376000920182905250938552505060016020938401819052888352828452604092839020855181546001600160a01b0319166001600160a01b03909116178155938501519084015550820151600282015560608201516003820155608082015160048201906102b090826105be565b5060a091909101516005909101805460ff191691151591909117905533600081815260016020818152604080842080549384018155845292200186905551849086907f5ee5722307dbca093b3a9af168666b7d3ea1d2911e717e59149bc7f52f85994a906103239087908790429061067e565b60405180910390a450505050565b6001600160a01b03811660009081526001602090815260409182902080548351818402810184019094528084526060939283018282801561039157602002820191906000526020600020905b81548152602001906001019080831161037d575b50505050509050919050565b6000602082840312156103af57600080fd5b5035919050565b85151581526000602060018060a01b0387168184015285604084015284606084015260a0608084015283518060a085015260005b818110156104065785810183015185820160c0015282016103ea565b50600060c0828601015260c0601f19601f830116850101925050509695505050505050565b6000806000806060858703121561044157600080fd5b8435935060208501359250604085013567ffffffffffffffff8082111561046757600080fd5b818701915087601f83011261047b57600080fd5b81358181111561048a57600080fd5b88602082850101111561049c57600080fd5b95989497505060200194505050565b6000602082840312156104bd57600080fd5b81356001600160a01b03811681146104d457600080fd5b9392505050565b6020808252825182820181905260009190848201906040850190845b81811015610513578351835292840192918401916001016104f7565b50909695505050505050565b600181811c9082168061053357607f821691505b60208210810361055357634e487b7160e01b600052602260045260246000fd5b50919050565b634e487b7160e01b600052604160045260246000fd5b601f8211156105b957600081815260208120601f850160051c810160208610156105965750805b601f850160051c820191505b818110156105b5578281556001016105a2565b5050505b505050565b815167ffffffffffffffff8111156105d8576105d8610559565b6105ec816105e6845461051f565b8461056f565b602080601f83116001811461062157600084156106095750858301515b600019600386901b1c1916600185901b1785556105b5565b600085815260208120601f198616915b8281101561065057888601518255948401946001909101908401610631565b508582101561066e5787850151600019600388901b60f8161c191681555b5050505050600190811b01905550565b604081528260408201528284606083013760006060848301015260006060601f19601f860116830101905082602083015294935050505056fea26469706673582212200eb2b770e7e32127cf07e1ea9344ff7061b6cb7645dabcb0f791260abf10861d64736f6c63430008130033",
  "linkReferences": {},
  "deployedLinkReferences": {}
}