{
  "contractName": "QuizLens",
  "abi": [
    {
      "anonymous": false,
      "inputs": [
        {
          "indexed": false,
          "internalType": "bytes32",
          "name": "newRoot",
          "type": "bytes32"
        }
      ],
      "name": "MerkleRootUpdated",
      "type": "event"
    },
    {
      "anonymous": false,
      "inputs": [
        {
          "indexed": true,
          "internalType": "bytes32",
          "name": "paperHash",
          "type": "bytes32"
        },
        {
          "indexed": true,
          "internalType": "address",
          "name": "setter",
          "type": "address"
        },
        {
          "indexed": false,
          "internalType": "string",
          "name": "title",
          "type": "string"
        }
      ],
      "name": "Notarized",
      "type": "event"
    },
    {
      "inputs": [],
      "name": "merkleRoot",
      "outputs": [
        {
          "internalType": "bytes32",
          "name": "",
          "type": "bytes32"
        }
      ],
      "stateMutability": "view",
      "type": "function"
    },
    {
      "inputs": [
        {
          "internalType": "uint256",
          "name": "",
          "type": "uint256"
        }
      ],
      "name": "notarizedHashes",
      "outputs": [
        {
          "internalType": "bytes32",
          "name": "",
          "type": "bytes32"
        }
      ],
      "stateMutability": "view",
      "type": "function"
    },
    {
      "inputs": [
        {
          "internalType": "bytes32",
          "name": "paperHash",
          "type": "bytes32"
        },
        {
          "internalType": "bytes32",
          "name": "reportHash",
          "type": "bytes32"
        },
        {
          "internalType": "string",
          "name": "title",
          "type": "string"
        }
      ],
      "name": "notarize",
      "outputs": [],
      "stateMutability": "nonpayable",
      "type": "function"
    },
    {
      "inputs": [
        {
          "internalType": "bytes32",
          "name": "leaf",
          "type": "bytes32"
        },
        {
          "internalType": "bytes32[]",
          "name": "proof",
          "type": "bytes32[]"
        },
        {
          "internalType": "bytes32",
          "name": "side",
          "type": "bytes32"
        }
      ],
      "name": "verifyMerkleProof",
      "outputs": [
        {
          "internalType": "bool",
          "name": "",
          "type": "bool"
        }
      ],
      "stateMutability": "view",
      "type": "function"
    },
    {
      "inputs": [
        {
          "internalType": "bytes32",
          "name": "paperHash",
          "type": "bytes32"
        }
      ],
      "name": "verify",
      "outputs": [
        {
          "internalType": "bool",
          "name": "valid",
          "type": "bool"
        },
        {
          "internalType": "address",
          "name": "setter",
          "type": "address"
        },
        {
          "internalType": "bytes32",
          "name": "reportHash",
          "type": "bytes32"
        },
        {
          "internalType": "uint256",
          "name": "timestamp",
          "type": "uint256"
        },
        {
          "internalType": "string",
          "name": "title",
          "type": "string"
        }
      ],
      "stateMutability": "view",
      "type": "function"
    },
    {
      "inputs": [],
      "name": "getLeafCount",
      "outputs": [
        {
          "internalType": "uint256",
          "name": "",
          "type": "uint256"
        }
      ],
      "stateMutability": "view",
      "type": "function"
    }
  ],
  "bytecode": "0x608060405234801561000f575f80fd5b506110b08061001d5f395ff3fe608060405234801561000f575f80fd5b5060043610610060575f3560e01c80632eb4a7ab1461006457806335f0dced14610082578063433953d7146100b257806375e36616146100e25780639755940b14610116578063d3ea612514610132575b5f80fd5b61006c610150565b6040516100799190610783565b60405180910390f35b61009c6004803603810190610097919061082f565b610156565b6040516100a991906108ba565b60405180910390f35b6100cc60048036038101906100c79190610906565b610221565b6040516100d99190610783565b60405180910390f35b6100fc60048036038101906100f79190610931565b610241565b60405161010d959493929190610a34565b60405180910390f35b610130600480360381019061012b9190610ae1565b61033a565b005b61013a610521565b6040516101479190610b52565b60405180910390f35b60015481565b5f808590505f5b85859050811015610210575f801b84146101b85785858281811061018457610183610b6b565b5b905060200201358260405160200161019d929190610bb8565b604051602081830303815290604052805190602001206101fb565b818686838181106101cc576101cb610b6b565b5b905060200201356040516020016101e4929190610bb8565b604051602081830303815290604052805190602001205b9150808061020890610c10565b91505061015d565b506001548114915050949350505050565b60028181548110610230575f80fd5b905f5260205f20015f915090505481565b5f805f8060605f805f8881526020019081526020015f209050805f015f9054906101000a900460ff16815f0160019054906101000a900473ffffffffffffffffffffffffffffffffffffffff1682600101548360020154846003018080546102a890610c84565b80601f01602080910402602001604051908101604052809291908181526020018280546102d490610c84565b801561031f5780601f106102f65761010080835404028352916020019161031f565b820191905f5260205f20905b81548152906001019060200180831161030257829003601f168201915b50505050509050955095509550955095505091939590929450565b6040518060a001604052806001151581526020013373ffffffffffffffffffffffffffffffffffffffff16815260200184815260200142815260200183838080601f0160208091040260200160405190810160405280939291908181526020018383808284375f81840152601f19601f820116905080830192505050505050508152505f808681526020019081526020015f205f820151815f015f6101000a81548160ff0219169083151502179055506020820151815f0160016101000a81548173ffffffffffffffffffffffffffffffffffffffff021916908373ffffffffffffffffffffffffffffffffffffffff160217905550604082015181600101556060820151816002015560808201518160030190816104599190610e7e565b50905050600284908060018154018082558091505060019003905f5260205f20015f909190919091505561048b61052d565b6001819055503373ffffffffffffffffffffffffffffffffffffffff16847f70a0d3c91852c418811b02c48812447497c35c5dd710185115d35b3a70063cc884846040516104da929190610f87565b60405180910390a37f90004c04698bc3322499a575ed3752dd4abf33e0a7294c06a787a0fe01bea9416001546040516105139190610783565b60405180910390a150505050565b5f600280549050905090565b5f8060028054905090505f8103610549575f801b915050610768565b5f8167ffffffffffffffff81111561056457610563610cb4565b5b6040519080825280602002602001820160405280156105925781602001602082028036833780820191505090505b5090505f5b828110156105ee57600281815481106105b3576105b2610b6b565b5b905f5260205f2001548282815181106105cf576105ce610b6b565b5b60200260200101818152505080806105e690610c10565b915050610597565b505b600181511115610748575f815190505f600260018361060f9190610fa9565b6106199190611009565b90505f8167ffffffffffffffff81111561063657610635610cb4565b5b6040519080825280602002602001820160405280156106645781602001602082028036833780820191505090505b5090505f5b8281101561073c575f60028261067f9190611039565b90505f856001836106909190610fa9565b1061069b57816106a9565b6001826106a89190610fa9565b5b90508682815181106106be576106bd610b6b565b5b60200260200101518782815181106106d9576106d8610b6b565b5b60200260200101516040516020016106f2929190610bb8565b6040516020818303038152906040528051906020012084848151811061071b5761071a610b6b565b5b6020026020010181815250505050808061073490610c10565b915050610669565b508093505050506105f0565b805f8151811061075b5761075a610b6b565b5b6020026020010151925050505b90565b5f819050919050565b61077d8161076b565b82525050565b5f6020820190506107965f830184610774565b92915050565b5f80fd5b5f80fd5b6107ad8161076b565b81146107b7575f80fd5b50565b5f813590506107c8816107a4565b92915050565b5f80fd5b5f80fd5b5f80fd5b5f8083601f8401126107ef576107ee6107ce565b5b8235905067ffffffffffffffff81111561080c5761080b6107d2565b5b602083019150836020820283011115610828576108276107d6565b5b9250929050565b5f805f80606085870312156108475761084661079c565b5b5f610854878288016107ba565b945050602085013567ffffffffffffffff811115610875576108746107a0565b5b610881878288016107da565b93509350506040610894878288016107ba565b91505092959194509250565b5f8115159050919050565b6108b4816108a0565b82525050565b5f6020820190506108cd5f8301846108ab565b92915050565b5f819050919050565b6108e5816108d3565b81146108ef575f80fd5b50565b5f81359050610900816108dc565b92915050565b5f6020828403121561091b5761091a61079c565b5b5f610928848285016108f2565b91505092915050565b5f602082840312156109465761094561079c565b5b5f610953848285016107ba565b91505092915050565b5f73ffffffffffffffffffffffffffffffffffffffff82169050919050565b5f6109858261095c565b9050919050565b6109958161097b565b82525050565b6109a4816108d3565b82525050565b5f81519050919050565b5f82825260208201905092915050565b5f5b838110156109e15780820151818401526020810190506109c6565b5f8484015250505050565b5f601f19601f8301169050919050565b5f610a06826109aa565b610a1081856109b4565b9350610a208185602086016109c4565b610a29816109ec565b840191505092915050565b5f60a082019050610a475f8301886108ab565b610a54602083018761098c565b610a616040830186610774565b610a6e606083018561099b565b8181036080830152610a8081846109fc565b90509695505050505050565b5f8083601f840112610aa157610aa06107ce565b5b8235905067ffffffffffffffff811115610abe57610abd6107d2565b5b602083019150836001820283011115610ada57610ad96107d6565b5b9250929050565b5f805f8060608587031215610af957610af861079c565b5b5f610b06878288016107ba565b9450506020610b17878288016107ba565b935050604085013567ffffffffffffffff811115610b3857610b376107a0565b5b610b4487828801610a8c565b925092505092959194509250565b5f602082019050610b655f83018461099b565b92915050565b7f4e487b71000000000000000000000000000000000000000000000000000000005f52603260045260245ffd5b5f819050919050565b610bb2610bad8261076b565b610b98565b82525050565b5f610bc38285610ba1565b602082019150610bd38284610ba1565b6020820191508190509392505050565b7f4e487b71000000000000000000000000000000000000000000000000000000005f52601160045260245ffd5b5f610c1a826108d3565b91507fffffffffffffffffffffffffffffffffffffffffffffffffffffffffffffffff8203610c4c57610c4b610be3565b5b600182019050919050565b7f4e487b71000000000000000000000000000000000000000000000000000000005f52602260045260245ffd5b5f6002820490506001821680610c9b57607f821691505b602082108103610cae57610cad610c57565b5b50919050565b7f4e487b71000000000000000000000000000000000000000000000000000000005f52604160045260245ffd5b5f819050815f5260205f209050919050565b5f6020601f8301049050919050565b5f82821b905092915050565b5f60088302610d3d7fffffffffffffffffffffffffffffffffffffffffffffffffffffffffffffffff82610d02565b610d478683610d02565b95508019841693508086168417925050509392505050565b5f819050919050565b5f610d82610d7d610d78846108d3565b610d5f565b6108d3565b9050919050565b5f819050919050565b610d9b83610d68565b610daf610da782610d89565b848454610d0e565b825550505050565b5f90565b610dc3610db7565b610dce818484610d92565b505050565b5b81811015610df157610de65f82610dbb565b600181019050610dd4565b5050565b601f821115610e3657610e0781610ce1565b610e1084610cf3565b81016020851015610e1f578190505b610e33610e2b85610cf3565b830182610dd3565b50505b505050565b5f82821c905092915050565b5f610e565f1984600802610e3b565b1980831691505092915050565b5f610e6e8383610e47565b9150826002028217905092915050565b610e87826109aa565b67ffffffffffffffff811115610ea057610e9f610cb4565b5b610eaa8254610c84565b610eb5828285610df5565b5f60209050601f831160018114610ee6575f8415610ed4578287015190505b610ede8582610e63565b865550610f45565b601f198416610ef486610ce1565b5f5b82811015610f1b57848901518255600182019150602085019450602081019050610ef6565b86831015610f385784890151610f34601f891682610e47565b8355505b6001600288020188555050505b505050505050565b828183375f83830152505050565b5f610f6683856109b4565b9350610f73838584610f4d565b610f7c836109ec565b840190509392505050565b5f6020820190508181035f830152610fa0818486610f5b565b90509392505050565b5f610fb3826108d3565b9150610fbe836108d3565b9250828201905080821115610fd657610fd5610be3565b5b92915050565b7f4e487b71000000000000000000000000000000000000000000000000000000005f52601260045260245ffd5b5f611013826108d3565b915061101e836108d3565b92508261102e5761102d610fdc565b5b828204905092915050565b5f611043826108d3565b915061104e836108d3565b925082820261105c816108d3565b9150828204841483151761107357611072610be3565b5b509291505056fea26469706673582212206f4f7614139c63e951e7d72d421bc938ff9f84cac528b6577233e98fe3c2c3ef64736f6c63430008150033",
  "immutableReferences": {},
  "source": "// SPDX-License-Identifier: MIT\npragma solidity ^0.8.19;\n\ncontract QuizLens {\n    struct Record {\n        bool valid;\n        address setter;\n        bytes32 reportHash;\n        uint256 timestamp;\n        string title;\n    }\n\n    mapping(bytes32 => Record) private records;\n    bytes32 public merkleRoot;          // ← new: store current root on-chain\n    bytes32[] public notarizedHashes;   // ← new: all leaf hashes\n\n    event Notarized(bytes32 indexed paperHash, address indexed setter, string title);\n    event MerkleRootUpdated(bytes32 newRoot);\n\n    function notarize(bytes32 paperHash, bytes32 reportHash, string calldata title) external {\n        records[paperHash] = Record(true, msg.sender, reportHash, block.timestamp, title);\n        notarizedHashes.push(paperHash);\n        merkleRoot = computeRoot();         // ← recompute root after each notarize\n        emit Notarized(paperHash, msg.sender, title);\n        emit MerkleRootUpdated(merkleRoot);\n    }\n\n    function verifyMerkleProof(\n        bytes32 leaf,\n        bytes32[] calldata proof,\n        bytes32 side           // 0 = sibling is on right, 1 = sibling is on left\n    ) external view returns (bool) {\n        bytes32 computed = leaf;\n        for (uint i = 0; i < proof.length; i++) {\n            computed = side == 0\n                ? keccak256(abi.encodePacked(computed, proof[i]))\n                : keccak256(abi.encodePacked(proof[i], computed));\n        }\n        return computed == merkleRoot;\n    }\n\n    function computeRoot() internal view returns (bytes32) {\n        uint n = notarizedHashes.length;\n        if (n == 0) return bytes32(0);\n        bytes32[] memory layer = new bytes32[](n);\n        for (uint i = 0; i < n; i++) layer[i] = notarizedHashes[i];\n        while (layer.length > 1) {\n            uint len = layer.length;\n            uint newLen = (len + 1) / 2;\n            bytes32[] memory next = new bytes32[](newLen);\n            for (uint i = 0; i < newLen; i++) {\n                uint left = i * 2;\n                uint right = left + 1 < len ? left + 1 : left;\n                next[i] = keccak256(abi.encodePacked(layer[left], layer[right]));\n            }\n            layer = next;\n        }\n        return layer[0];\n    }\n\n    function verify(bytes32 paperHash) external view returns (\n        bool valid, address setter, bytes32 reportHash, uint256 timestamp, string memory title\n    ) {\n        Record storage r = records[paperHash];\n        return (r.valid, r.setter, r.reportHash, r.timestamp, r.title);\n    }\n\n    function getLeafCount() external view returns (uint256) {\n        return notarizedHashes.length;\n    }\n}",
  "sourcePath": "/Users/bindhusree/BlockChain/quizlens-dapp/contracts/QuizLens.sol",
  "compiler": {
    "name": "solc",
    "version": "0.8.21+commit.d9974bed.Emscripten.clang"
  },
  "schemaVersion": "3.4.16",
  "updatedAt": "2026-03-23T11:13:54.099Z",
  "devdoc": {
    "kind": "dev",
    "methods": {},
    "version": 1
  },
  "userdoc": {
    "kind": "user",
    "methods": {},
    "version": 1
  }
}